:020000040800F2
:10000000000002209D1F0008591B0008611B00080A
:10001000631B0008651B0008671B00080000000048
:10002000000000000000000000000000016800085F
:10003000691B000800000000A16800083961000881
:10004000ED1F0008ED1F0008ED1F0008ED1F000860
:10005000ED1F0008ED1F00086B1B0008ED1F0008D6
:10006000ED1F0008ED1F0008ED1F0008ED1F000840
:10007000ED1F0008ED1F0008ED1F0008ED1F000830
:10008000ED1F0008ED1F0008ED1F00080000000034
:10009000000000000000000000000000751B0008C8
:1000A000ED1F0008891B0008ED1F0008ED1F000868
:1000B000ED1F0008ED1F0008ED1F0008ED1F0008F0
:1000C000ED1F0008ED1F0008ED1F0008ED1F0008E0
:1000D000ED1F0008ED1F0008A11B00080000000034
:1000E000B11B0008ED1F0008ED1F00080000000014
:1000F000000000000000000000000000ED1F0008EC
:1001000000000000ED1F0008ED1F0008ED1F0008B3
:1001100000000000000000000000000000000000DF
:10012000BD1B0008ED1F0008CD1B0008ED1F0008D7
:10013000ED1F0008000000000000000000000000AB
:10014000000000000000000000000000ED1F00089B
:10015000ED1F0008ED1F0008ED1F0008ED1F00084F
:10016000ED1F0008ED1F0008000000000000000067
:10017000000000000000000000000000000000007F
:1001800000000000ED1F000800000000000000005B
:08019000ED1F0008ED1F00083F
:1001C00081F0004102E000BF83F0004330B54FEA08
:1001D00041044FEA430594EA050F08BF90EA020F75
:1001E0001FBF54EA000C55EA020C7FEA645C7FEA08
:1001F000655C00F0E2804FEA5454D4EB5555B8BF2B
:100200006D420CDD2C4480EA020281EA030382EA9B
:10021000000083EA010180EA020281EA0303362D2D
:1002200088BF30BD11F0004F4FEA01314FF4801C00
:100230004CEA113102D0404261EB410113F0004F12
:100240004FEA03334CEA133302D0524263EB4303C9
:1002500094EA050F00F0A780A4F10104D5F1200E67
:100260000DDB02FA0EFC22FA05F2801841F10001C2
:1002700003FA0EF2801843FA05F359410EE0A5F196
:1002800020050EF1200E012A03FA0EFC28BF4CF0C7
:10029000020C43FA05F3C01851EBE37101F000457D
:1002A00007D54FF0000EDCF1000C7EEB00006EEB8A
:1002B0000101B1F5801F1BD3B1F5001F0CD3490814
:1002C0005FEA30004FEA3C0C04F101044FEA44526B
:1002D00012F5800F80F09A80BCF1004F08BF5FEAF2
:1002E000500C50F1000041EB045141EA050130BDD2
:1002F0005FEA4C0C404141EB0101013C28BFB1F5E4
:10030000801FE9D291F0000F04BF01460020B1FA2E
:1003100081F308BF2033A3F10B03B3F120020CDA01
:100320000C3208DD02F1140CC2F10C0201FA0CF0DF
:1003300021FA02F10CE002F11402D8BFC2F1200C44
:1003400001FA02F120FA0CFCDCBF41EA0C019040FA
:10035000E41AA2BF01EB0451294330BD6FEA040443
:100360001F3C1CDA0C340EDC04F11404C4F120022E
:1003700020FA04F001FA02F340EA030021FA04F340
:1003800045EA030130BDC4F10C04C4F1200220FA97
:1003900002F001FA04F340EA0300294630BD21FAD5
:1003A00004F0294630BD94F0000F83F4801306BF9B
:1003B00081F480110134013D4EE77FEA645C18BF8F
:1003C0007FEA655C29D094EA050F08BF90EA020F26
:1003D00005D054EA000C04BF1946104630BD91EA1E
:1003E000030F1EBF0021002030BD5FEA545C05D121
:1003F0004000494128BF41F0004130BD14F5800460
:100400003CBF01F5801130BD01F0004545F0FE41D3
:1004100041F470014FF0000030BD7FEA645C1ABF08
:10042000194610467FEA655C1CBF0B46024650EA3F
:10043000013406BF52EA033591EA030F41F400216B
:1004400030BD00BF90F0000F04BF0021704730B5F1
:100450004FF4806404F132044FF000054FF00001C6
:1004600050E700BF90F0000F04BF0021704730B587
:100470004FF4806404F1320410F0004548BF40425C
:100480004FF000013EE700BF42004FEAE2014FEAB1
:1004900031014FEA02701FBF12F07F4393F07F4F8C
:1004A00081F06051704732F07F4208BF704793F08F
:1004B0007F4F04BF41F40021704730B54FF46074A2
:1004C00001F0004521F000411CE700BF50EA0102A5
:1004D00008BF704730B54FF000050AE050EA01024E
:1004E00008BF704730B511F0004502D5404261EBBE
:1004F00041014FF4806404F132045FEA915C3FF4FF
:10050000D8AE4FF003025FEADC0C18BF03325FEA9B
:10051000DC0C18BF033202EBDC02C2F1200300FA4C
:1005200003FC20FA02F001FA03FE40EA0E0021FA71
:1005300002F11444BDE600BF70B54FF0FF0C4CF45F
:10054000E06C1CEA11541DBF1CEA135594EA0C0F11
:1005500095EA0C0F00F0DEF82C4481EA030621EA4C
:100560004C5123EA4C5350EA013518BF52EA033587
:1005700041F4801143F4801338D0A0FB02CE4FF039
:100580000005E1FB02E506F00042E0FB03E54FF069
:100590000006E1FB03569CF0000F18BF4EF0010E61
:1005A000A4F1FF04B6F5007F64F5407404D25FEA5D
:1005B0004E0E6D4146EB060642EAC62141EA555110
:1005C0004FEAC52040EA5E504FEACE2EB4F1FD0C52
:1005D00088BFBCF5E06F1ED8BEF1004F08BF5FEAD0
:1005E000500E50F1000041EB045170BD06F0004682
:1005F00046EA010140EA020081EA0301B4EB5C042F
:10060000C2BFD4EB0C0541EA045170BD41F4801126
:100610004FF0000E013C00F3AB8014F1360FDEBF4B
:10062000002001F0004170BDC4F10004203C35DA27
:100630000C341BDC04F11404C4F1200500FA05F3AA
:1006400020FA04F001FA05F240EA020001F000424B
:1006500021F0004110EBD37021FA04F642EB0601C1
:100660005EEA430E08BF20EAD37070BDC4F10C04EB
:10067000C4F1200500FA04F320FA05F001FA04F2AF
:1006800040EA020001F0004110EBD37041F100019B
:100690005EEA430E08BF20EAD37070BDC4F12005A6
:1006A00000FA05F24EEA020E20FA04F301FA05F20E
:1006B00043EA020321FA04F001F0004121FA04F2B6
:1006C00020EA020000EBD3705EEA430E08BF20EA86
:1006D000D37070BD94F0000F0FD101F000464000C0
:1006E00041EB010111F4801F08BF013CF7D041EA42
:1006F000060195F0000F18BF704703F00046520046
:1007000043EB030313F4801F08BF013DF7D043EA16
:100710000603704794EA0C0F0CEA135518BF95EACC
:100720000C0F0CD050EA410618BF52EA4306D1D153
:1007300081EA030101F000414FF0000070BD50EA72
:10074000410606BF1046194652EA430619D094EAFC
:100750000C0F02D150EA013613D195EA0C0F05D1E6
:1007600052EA03361CBF104619460AD181EA03013A
:1007700001F0004141F0FE4141F470014FF00000F2
:1007800070BD41F0FE4141F4780170BD70B54FF08D
:10079000FF0C4CF4E06C1CEA11541DBF1CEA13550D
:1007A00094EA0C0F95EA0C0F00F0A7F8A4EB0504EF
:1007B00081EA030E52EA03354FEA013100F08880E6
:1007C0004FEA03334FF0805545EA131343EA1263AF
:1007D0004FEA022245EA111545EA10654FEA002664
:1007E0000EF000419D4208BF964244F1FD0404F51D
:1007F000407402D25B084FEA3202B61A65EB030579
:100800005B084FEA32024FF480104FF4002CB6EB35
:10081000020E75EB030E22BFB61A754640EA0C00B5
:100820005B084FEA3202B6EB020E75EB030E22BFF5
:10083000B61A754640EA5C005B084FEA3202B6EB36
:10084000020E75EB030E22BFB61A754640EA9C00F5
:100850005B084FEA3202B6EB020E75EB030E22BFC5
:10086000B61A754640EADC0055EA060E18D04FEA83
:10087000051545EA16754FEA06164FEAC30343EA23
:1008800052734FEAC2025FEA1C1CC0D111F4801FF0
:100890000BD141EA00014FF000004FF0004CB6E7E9
:1008A00011F4801F04BF01430020B4F1FD0C88BF88
:1008B000BCF5E06F3FF6AFAEB5EB030C04BFB6EB93
:1008C000020C5FEA500C50F1000041EB045170BD86
:1008D0000EF0004E4EEA113114EB5C04C2BFD4EBB3
:1008E0000C0541EA045170BD41F480114FF0000E37
:1008F000013C90E645EA060E8DE60CEA135594EAB3
:100900000C0F08BF95EA0C0F3FF43BAF94EA0C0FB5
:100910000AD150EA01347FF434AF95EA0C0F7FF42A
:1009200025AF104619462CE795EA0C0F06D152EA7E
:1009300003353FF4FDAE1046194622E750EA410662
:1009400018BF52EA43067FF4C5AE50EA41047FF473
:100950000DAF52EA43057FF4EBAE12E74FEA4102D6
:1009600012F5001215D211D56FF47873B3EB625201
:1009700012D94FEAC12343F0004343EA505311F028
:10098000004F23FA02F018BF404270474FF00000BA
:10099000704750EA013005D111F0004008BF6FF0F8
:1009A000004070474FF00000704700BF4A0011D26E
:1009B00012F5001211D20DD56FF47873B3EB6252B9
:1009C0000ED44FEAC12343F0004343EA505323FAC5
:1009D00002F070474FF00000704750EA013002D13A
:1009E0004FF0FF3070474FF0000070474FEA410270
:1009F000B2F1E04324BFB3F5001CDCF1FE5C0DD97D
:100A000001F0004C4FEAC0024CEA5070B2F1004FC6
:100A100040EB830008BF20F00100704711F0804FC9
:100A200021D113F13872BCBF01F00040704741F48E
:100A300080114FEA5252C2F11802C2F1200C10FA92
:100A40000CF320FA02F018BF40F001004FEAC12376
:100A50004FEAD32303FA0CFC40EA0C0023FA02F31A
:100A60004FEA4303CCE77FEA625307D150EA0133F0
:100A70001EBF4FF0FE4040F44000704701F00040C0
:100A800040F0FE4040F40000704700BF53B94AB93F
:100A9000002908BF00281CBF4FF0FF314FF0FF3086
:100AA00000F00CB8ADF1080C6DE904CE36F036FD5F
:100AB000DDF804E0DDE9022304B07047704700BFB1
:100AC00002780B78012A28BF9A4240F0D8806DE95D
:100AD000044540EA0104CDE902676FF0000C4FEADB
:100AE00044721AB380EA010414F0070F6BD100F0CE
:100AF000070420F0070004F0030521F007014FEA86
:100B0000C505F0E8042314F0040FF1E804670CFABB
:100B100005F462EA040266EA04060BD063EA040301
:100B2000624667EA0407664604E000BFF0E8042373
:100B3000F1E8046782FA4CF582EA0604A4FA8CF420
:100B40006CBB83FA4CF583EA0705A5FA8CF595B9D9
:100B500050E9022351E9026782FA4CF582EA060461
:100B6000A4FA8CF483FA4CF583EA0705A5FA8CF510
:100B70002543DBD09CB92DBAB5FA85F424F00704DF
:100B800027FA04F1DDE9026723FA04F303F0FF001A
:100B900001F0FF01FDE80445A0EB0100704724BA15
:100BA000B4FA84F424F0070426FA04F1DDE90267BC
:100BB00022FA04F202F0FF0001F0FF01FDE8044513
:100BC000A0EB0100704714F0030F3CD110F00304B8
:100BD00028D150F8082B51F8083B82FA4CF582EAEC
:100BE0000305A5FA8CF55DB950F8042C51F8043CC6
:100BF00082FA4CF582EA0305A5FA8CF5002DE8D0BF
:100C00002DBAB5FA85F424F0070423FA04F122FA88
:100C100004F202F0FF0001F0FF01FDE80445A0EB43
:100C2000010070474FEAC40420F0030050F8082B7D
:100C300021F0030151F8083B0CFA04F462EA0402C3
:100C400063EA0403C9E710F003041DD0A1EB04011B
:100C500020F00300E40750F8042B06D012D28B7862
:100C60005FFAA2F4E41A06D12BB1CB785FFAB2F4A2
:100C7000E41A00D133B920465DF8104B7047A2EB5F
:100C80000300704701F1040150F8042BCC0721F058
:100C9000030151F8043B48D824D222F07F4482FA61
:100CA0004CF594EA1325A5FA8CF50AD165B951F8EB
:100CB000043B84EA0204B4EB036F0ED150F8042B1A
:100CC000EBE74FEA132355E035F07F454DD1087827
:100CD000FDE80445C0F1000070474FEA126203F0DE
:100CE000FF0347E002EA1C4482FA4CF594EA1345FC
:100CF000A5FA8CF50AD165B951F8043B84EA0204DF
:100D0000B4EB034F0CD150F8042BEBE74FEA13433D
:100D100030E015EA1C4528D10B884FEA124229E041
:100D20004FEA124203EA1C4324E002F0FF0482FA75
:100D30004CF594EA1365A5FA8CF50AD165B951F81A
:100D4000043B84EA0204B4EB032F09D150F8042BCE
:100D5000EBE74FEA13630DE015F0FF0F05D10B68C9
:100D60004FEA122223F07F4304E04FF00000FDE839
:100D70000445704712BA1BBA82FA4CF482EA0304A3
:100D8000A4FA8CF5B5FA85F402FA04F203FA04F336
:100D90004FEA1260FDE80445A0EB1360704700BF06
:100DA000844641EA000313F003036DD1403A41D376
:100DB00051F8043B40F8043B51F8043B40F8043B35
:100DC00051F8043B40F8043B51F8043B40F8043B25
:100DD00051F8043B40F8043B51F8043B40F8043B15
:100DE00051F8043B40F8043B51F8043B40F8043B05
:100DF00051F8043B40F8043B51F8043B40F8043BF5
:100E000051F8043B40F8043B51F8043B40F8043BE4
:100E100051F8043B40F8043B51F8043B40F8043BD4
:100E200051F8043B40F8043B51F8043B40F8043BC4
:100E3000403ABDD2303211D351F8043B40F8043B64
:100E400051F8043B40F8043B51F8043B40F8043BA4
:100E500051F8043B40F8043B103AEDD20C3205D374
:100E600051F8043B40F8043B043AF9D2043208D06C
:100E7000D2071CBF11F8013B00F8013B01D30B88DE
:100E800003806046704700BF082A13D38B078DD0BC
:100E900010F003038AD0C3F10403D21ADB071CBF8E
:100EA00011F8013B00F8013B80D331F8023B20F8F8
:100EB000023B7BE7043AD9D3013A11F8013B00F831
:100EC000013BF9D20B7803704B7843708B788370B9
:100ED00060467047000000000000000000000000B5
:100EE0000000000000000000000000000000000002
:100EF00000000000000000000000000000000000F2
:100F000030B490F800F020F007016FF0000C10F002
:100F1000070491F820F040F048804FF000046FF093
:100F20000700D1E9002391F840F000F1080082FAAF
:100F30004CF2A4FA8CF283FA4CF3A2FA8CF34BBB7A
:100F4000D1E9022382FA4CF200F10800A4FA8CF2F3
:100F500083FA4CF3A2FA8CF3E3B9D1E9042382FAC1
:100F60004CF200F10800A4FA8CF283FA4CF3A2FAD6
:100F70008CF37BB9D1E9062301F1200182FA4CF20E
:100F800000F10800A4FA8CF283FA4CF3A2FA8CF375
:100F9000002BC6D0002A04BF04301A4612BAB2FA97
:100FA00082F200EBD20030BC7047D1E9002304F09C
:100FB0000305C4F100004FEAC50514F0040F91F8D1
:100FC00040F00CFA05F562EA05021CBF63EA05036E
:100FD00062464FF00004AAE7000000000000000095
:100FE00001F0FF01102A2BDB10F0070F08D010F8DA
:100FF000013B013A8B422DD010F0070F42B3F6D1DE
:10100000F0B441EA012141EA014122F007047FF0F6
:1010100000070023F0E80256083C85EA010586EA4D
:10102000010685FA47F5A3FA87F586FA47F6A5FA89
:1010300087F68EB9EED1F0BC01F0FF0102F0070295
:1010400032B110F8013B013A83EA010313B1F8D140
:101050000020704701387047002D06BF3546033821
:10106000073815F0010F07D1013015F4807F02BF5A
:10107000013015F4C03F0130F0BC0138704700BFAB
:101080004FF0FF3C06E000BF4FF0010C02E000BF54
:101090004FF0010C4DF804CD4FEA410C7FEA6C5C37
:1010A0004FEA430C18BF7FEA6C5C1BD001B050EADA
:1010B000410C0CBF52EA430C91EA030F02BF90EAC5
:1010C000020F0020704710F1000F91EA030F58BF84
:1010D000994208BF90422CBFD8176FEAE37040F0E6
:1010E000010070474FEA410C7FEA6C5C02D150EA84
:1010F000013C07D14FEA430C7FEA6C5CD6D152EA3F
:10110000033CD3D05DF8040B704700BF8446104603
:1011100062468C461946634600E000BF01B5FFF702
:10112000B7FF002848BF10F1000F01BD4DF808EDD2
:10113000FFF7F4FF0CBF012000205DF808FB00BFA3
:101140004DF808EDFFF7EAFF34BF012000205DF8FD
:1011500008FB00BF4DF808EDFFF7E0FF94BF01204A
:1011600000205DF808FB00BF4DF808EDFFF7CEFF4B
:1011700094BF012000205DF808FB00BF4DF808ED8A
:10118000FFF7C4FF34BF012000205DF808FB00BF5B
:101190004FEA410C7FEA6C5C02D150EA013C0AD173
:1011A0004FEA430C7FEA6C5C02D152EA033C02D165
:1011B0004FF0000070474FF0010070470348044BA8
:1011C000834202D0034B03B11847704764070020E5
:1011D00064070020000000000548064B1B1AD90FC9
:1011E00001EBA301491002D0034B03B1184770472C
:1011F00064070020640700200000000010B5064CC2
:10120000237843B9FFF7DAFF044B13B10448AFF377
:1012100000800123237010BD68070020000000003B
:1012200030DC030808B5054B1BB105490548AFF391
:101230000080BDE80840FFF7CFBF00BF00000000FE
:101240006C07002030DC030800B585B00023009354
:101250000193029303932148214A02604FF48032A4
:101260004260836001220261037680F82030C3620D
:101270001C498162C3600321C16180F83030426142
:1012800000F090FFE8B901230093019302936946AF
:10129000124801F0B1F8B8B9134B0093022301933F
:1012A00069460E4801F0A8F888B91123009303237A
:1012B00001936946094801F09FF858B905B05DF8F7
:1012C00004FB00F0B3FADEE700F0B0FAE4E700F068
:1012D000ADFAEAE700F0AAFAF0E700BFE407002061
:1012E000002001400100000F1200001030B589B04D
:1012F000002303930493059306930793026803F175
:10130000804303F590339A4201D009B030BD0446C2
:101310000025019503F58C335A6C42F480725A64AF
:101320005A6C02F480720192019A02951A6B42F093
:1013300001021A631B6B03F001030293029B022359
:1013400003930323049303A90F4801F0F5FB0F480F
:101350000F4B036045608560C5604FF48063036197
:101360004FF4805343614FF480438361C56105624C
:10137000456201F0FBF918B9044BA3639C63C4E711
:1013800000F054FAF8E700BF000002408407002094
:101390001064024010B582B0002401940D4B1A6B0A
:1013A00042F480021A631B6B03F480030193019BD8
:1013B00022460521382001F049F9382001F056F97C
:1013C000224605213A2001F041F93A2001F04EF978
:1013D00002B010BD0038024008B5012028F0F6FB2D
:1013E00008BD000008B51D4805F02DF81C4B18601D
:1013F0001C4B002201211C4804F046FF1B4B1860C7
:1014000042F2107104F094FF194A0021194804F0C7
:10141000CDFE194B1860194A0021194804F0C6FE88
:10142000184B1860184A0021184804F0BFFE184BEA
:101430001860184A0021184804F0B8FE174B1860CD
:10144000174A0021174804F0B1FE174B18601748DF
:1014500004F0AAFF164B186008BD00BFA4E50308FE
:1014600030080020B4E50308957303083408002011
:1014700054E6030839740308DC69002030E60308E9
:1014800065720308D86900200CE60308A1720308FE
:10149000D4690020E8E5030841720308D069002000
:1014A000C4E50308917203083808002094E5030896
:1014B0002C0800202DE9F0478AB0002405940694FA
:1014C0000794089409940194734B1A6B42F0040238
:1014D0001A631A6B02F004020192019A02941A6BC9
:1014E00042F080021A631A6B02F080020292029AA2
:1014F00003941A6B42F001021A631A6B02F00102A4
:101500000392039A04941A6B42F002021A631B6B53
:1015100003F002030493049BDFF8889101224FF447
:101520002041484601F0F3FB22464FF480414846F3
:1015300001F0EDFB594E012248F20411304601F052
:10154000E6FB574F01224FF40071384601F0DFFBF4
:1015500022464FF40441384601F0D9FB4FF42043B2
:101560000593012506950794089405A9484601F0BE
:10157000E3FA4FF48043059306954FF00208CDF847
:101580001C80089405A9484601F0D6FA212305934A
:101590004FF48819CDF81890079405A9384601F042
:1015A000CBFAD02305930694079405A9384601F099
:1015B000C3FA05950694079405A9304601F0BCFAD4
:1015C000CDF8148003230693079405A9304601F053
:1015D000B3FA4FF48273059306950794089405A90E
:1015E000304601F0A9FA4FF4806ACDF814A04FF408
:1015F00004130693079405A9304601F09DFA4FF4B1
:10160000405305930694079505A9304601F094FAD6
:101610004FF40043059306950794CDF8208005A963
:10162000304601F089FA4FF402430593069507947A
:10163000CDF8208005A9384601F07EFACDF814A037
:1016400006950794089405A9384601F075FA4FF4F9
:1016500000730593CDF81890079405A9304601F062
:101660006BFA22462946062000F0F0FF062000F023
:10167000FDFF22462946172000F0E8FF172000F062
:10168000F5FF22462946282000F0E0FF282000F040
:10169000EDFF0AB0BDE8F0870038024000040240C8
:1016A000000002400008024008B50B480B4B0360E5
:1016B0000B4B436000238360C3604FF480420261A0
:1016C00043618361C361036201F0C0FD00B908BDDD
:1016D00000F0ACF8FBE700BF346A00200054004083
:1016E000A086010008B50B480B4B03600B4B436011
:1016F00000238360C3604FF48042026143618361D1
:10170000C361036201F0A2FD00B908BD00F08EF8CC
:10171000FBE700BFE0690020005C0040A0860100FC
:10172000F0B58BB0002305930693079308930993B4
:101730000368334A934204D0324A934226D00BB016
:10174000F0BD00250095304C236B43F0020323636A
:10175000236B03F002030093009BC0230593122325
:10176000069301230793032308930423099305A9F0
:10177000264801F0E1F90195236C43F4001323643A
:10178000236C03F400130193019BD8E70025029515
:101790001D4C236B43F001032363236B03F0010310
:1017A0000293029B0395236B43F002032363236B95
:1017B00003F002030393039B4FF4807305931227F6
:1017C0000697032608960423099305A9104801F0FB
:1017D000B3F91023059306970795089609230993F3
:1017E00005A90A4801F0A8F90495236C43F4000305
:1017F0002364236C03F400030493049B9FE700BF5E
:1018000000540040005C00400038024000040240E8
:101810000000024008B50268034B9A4200D008BDA0
:1018200000F000FCFBE700BF0044014072B6FEE799
:1018300000B595B03022002108A836F0A5F90023A4
:10184000039304930593069307930193204A116C25
:1018500041F080511164126C02F080520192019AA1
:1018600002931C4B1A6842F440421A601B6803F44E
:1018700040430293029B012308934FF48033099362
:1018800002230E934FF480020F92082210926022DE
:10189000119212930423139308A802F083F898B9C5
:1018A0000F23039302230493002305934FF48052E4
:1018B00006920793032103A802F0DEFA30B902F082
:1018C0006DFA15B05DF804FBFFF7B0FFFFF7AEFF50
:1018D000003802400070004000B583B0B0F5007FD2
:1018E00014D0202818D001281AD0002301930E4BC1
:1018F0001A6C42F080521A641B6C03F080530193FF
:10190000019BFFF795FF03B05DF804FB0123074A35
:101910001370074A1370E4E7054B01221A70E4E7DD
:10192000044B01221A70E0E70038024008710020E1
:10193000896A0020886A002008B500F059FBFFF78B
:1019400077FFFFF7B7FDFFF725FDFFF77DFC00F000
:1019500079FA00F0F9F900F01DF8FFF7C3FEFFF780
:10196000A3FE00F0C7FA35F015FC0EF0FBFF0BF0FC
:10197000B3FD0BF00DFE0BF011FA35F029FC07F06A
:10198000D3F907F05FFE04F0E3FBFFF72BFD04F053
:10199000F1FBFEE708B50D480D4B03604FF4827371
:1019A000436000238360C360036143614FF40072AE
:1019B0008261C3610362436283620A23C36202F0ED
:1019C00005FC00B908BDFFF731FFFBE7EC6A00201A
:1019D0000030014030B589B0002303930493059390
:1019E000069307930268224B9A4201D009B030BD9A
:1019F00004460025019503F584335A6C42F4805265
:101A00005A645A6C02F480520192019A02951A6B40
:101A100042F002021A631B6B03F002030293029B63
:101A20002823039302230493032306930523079398
:101A300003A9104801F080F80F48104B03604FF0E5
:101A40008063436040238360C5604FF4806303611B
:101A500045618561C5610562456200F087FE18B980
:101A6000054BA3649C63C1E7FFF7E0FEF8E700BF06
:101A700000300140000402408C6A002040640240B3
:101A800000B583B0002200920D4B596C41F48041A7
:101A90005964596C01F48041009100990192196CCC
:101AA00041F0805119641B6C03F080530193019B3A
:101AB0000F216FF0010000F0C9FD03B05DF804FBD9
:101AC0000038024030B589B00546002401941D4B12
:101AD0005A6C42F400325A645B6C03F40033019395
:101AE000019B02A903A802F09DFA02F08BFA164AA4
:101AF000A2FB00239B0C013B1448154A026040F2F4
:101B0000E732C260436004618460846102F070FF68
:101B1000044610B1204609B030BD0C4802F022FE48
:101B200004460028F6D1192000F0A0FD0F2D01D9A0
:101B30000124EFE700222946192000F087FD054B1C
:101B40001D60E7E70038024083DE1B43446B002042
:101B5000004401400800002008B502F083FAFEE7C7
:101B6000FEE7FEE7FEE7FEE7704708B5012001F05B
:101B7000D5F808BD08B5202001F0D0F84FF400706A
:101B800001F0CCF808BD000008B5034802F02BFEB8
:101B9000024802F028FE08BD906B0020446B002034
:101BA00008B5024803F018FC08BD00BFD86B002040
:101BB00008B54FF4806001F0B1F808BD08B50248DF
:101BC00000F0CCFE08BD00BF8407002008B5024825
:101BD00000F0C4FE08BD00BF8C6A002001207047E1
:101BE00008B536F0A5F8162303604FF0FF3008BDA6
:101BF00008B54FF0FF31FFF7F3FFFEE770B50C4675
:101C00001646002506E0AFF30080214601F8010BDF
:101C100001350C46B542F6DB304670BD70B50C465A
:101C20001646002504E014F8010BAFF300800135DF
:101C3000B542F8DB304670BD4FF0FF3070474FF4CF
:101C400000534B6000207047012070470020704710
:101C500010B503460C4A0D490D48006840B10C48C8
:101C600000680344521A934206D8094A136010BD13
:101C70000748084C0460F2E736F05AF80C2303607A
:101C80004FF0FF30F3E700BF00000220001000001B
:101C90008C6B0020D8CC0120034AD2F8883043F462
:101CA0007003C2F88830704700ED00E002680E4B08
:101CB0009A4200D0704700B583B00022019203F52C
:101CC0009C33596C41F0010159645B6C03F00103D2
:101CD0000193019B0F21192000F0B8FC192000F09E
:101CE000C5FC03B05DF804FB0000014000B587B0FF
:101CF00000230193029303930493059302680F4B0F
:101D00009A4202D007B05DF804FB002300930C4B0D
:101D10001A6B42F002021A631B6B03F0020300937A
:101D2000009B4FF480430193022302930123059308
:101D300001A9044800F000FFE4E700BF00000140F3
:101D4000003802400004024010B596B000241294FE
:101D50001394149415941094119409940A940B9468
:101D60000C940D940E940F942022214601A835F076
:101D70000BFF3248324B03602F234360846040F2F4
:101D8000F313C360046144618023836102F030FE79
:101D9000002841D14FF48053129312A9274802F032
:101DA00028FF00283BD1254802F04EFE002839D1FB
:101DB00000231093119310A9204803F059F800282C
:101DC00033D1602309930A230A9300230B930C93C6
:101DD00004220D920E934FF400730F9309A9174834
:101DE00002F08CFE20BB15480268936923F400635F
:101DF00093610023019302930393049305934FF49B
:101E000000520692089301A903F070F898B90B48A4
:101E1000FFF76CFF16B010BDFFF708FDBAE7FFF73C
:101E200005FDC0E7FFF702FDC2E7FFF7FFFCC8E7CB
:101E3000FFF7FCFCD7E7FFF7F9FCE8E7906B002021
:101E40000000014008B50A480A4B03604FF4E13333
:101E5000436000238360C36003610C22426183619D
:101E6000C36103F098F900B908BDFFF7DFFCFBE799
:101E7000D86B00200044004030B589B000230393A4
:101E800004930593069307930268184B9A4201D076
:101E900009B030BD0024019403F5FA331A6C42F402
:101EA00000321A641A6C02F400320192019A029410
:101EB0001A6B42F001021A631B6B03F001030293D9
:101EC000029B0C2303930225049503230693072307
:101ED000079303A9064800F02FFE22462946262034
:101EE00000F0B4FB262000F0C1FBD1E70044004025
:101EF0000000024008B50B484FF0A04303600423E4
:101F000003710222C2710023837142728372C37211
:101F100003738373C37301F0A5FC00B908BDFFF719
:101F200085FCFBE7206C002030B589B000230393CB
:101F300004930593069307930368B3F1A04F01D070
:101F400009B030BD00250195124C236B43F001030D
:101F50002363236B03F001030193019B4FF4C053F0
:101F6000039302230493032306930A23079303A9ED
:101F7000094800F0E1FD636B43F080036363029561
:101F8000636C43F480436364636C03F480430293A3
:101F9000029BD5E70038024000000240DFF834D051
:101FA000FFF77AFE0C480D490D4A002302E0D45891
:101FB000C4500433C4188C42F9D30A4A0A4C002393
:101FC00001E013600432A242FBD335F0B7FEFFF705
:101FD000B3FC7047000002200000002064070020CE
:101FE00020E3060868070020D8CC0120FEE70000A7
:101FF00008B50B4B1A6842F400721A601A6842F472
:1020000080621A601A6842F480721A60032000F03D
:102010000BFB0F20FFF756FDFFF732FD002008BD38
:10202000003C0240034A1168034B1B780B441360C9
:10203000704700BF0471002004000020014B1868A5
:10204000704700BF0471002038B50446FFF7F6FF63
:102050000546B4F1FF3F02D0044B1B781C44FFF748
:10206000EDFF401BA042FAD338BD00BF04000020A2
:102070004A4B5A6822F440325A605A6841680A430F
:102080005A600268536823F480735360026853688F
:10209000016943EA012353600268536823F04073E7
:1020A00053600268536881680B4353600268936809
:1020B00023F40063936002689368C1680B439360E4
:1020C000826A374B9A4257D00268936823F0706354
:1020D000936002689368816A0B4393600268936817
:1020E00023F04053936002689368C16A0B43936086
:1020F0000268936823F00203936002689368017E8C
:1021000043EA4103936090F82030002B3FD00268EF
:10211000536843F4006353600268536823F46043D8
:10212000536001684B68426A013A43EA42334B60AC
:102130000268D36A23F47003D3620168CB6AC26970
:10214000013A43EA0253CB620268936823F40073B6
:1021500093600268936890F8301043EA41239360DB
:102160000268936823F4806393600268936841690E
:1021700043EA8123936070470268936823F0706399
:1021800093600268936823F040539360B0E702685D
:10219000536823F400635360CAE700BF0023014083
:1021A0000100000F38B310B50446036C43B1236C33
:1021B00013F0100F0BD00120002384F83C3010BD29
:1021C000FFF794F80023636484F83C30EFE7236C56
:1021D00023F4885323F0020343F0020323642046D0
:1021E000FFF746FF00206064236C23F0030343F0F5
:1021F00001032364E0E701207047000010B582B0BE
:1022000013460022019290F83C20012A00F09480AD
:102210000446012280F83C200268906810F0010F0B
:1022200013D1906840F001009060464A1068464A19
:10223000A2FB0020800C00EB4000019002E001981E
:102240000138019001980028F9D12268906810F4B3
:10225000807F03D0906820F480709060226890683E
:1022600010F0010F5DD0206C20F4E06020F0010040
:1022700040F480702064526812F4806F05D0226CA4
:1022800022F4405242F480522264226C12F4805FA5
:1022900034D0626C22F006026264002284F83C2092
:1022A000A26B2A48D063A26B29481064A26B29480C
:1022B000D06422686FF0220010602068426842F00B
:1022C000806242602068826842F480728260206886
:1022D0000A4600F14C01A06B00F0AEFA1E4B5B68A1
:1022E00013F01F0F0DD123689A6812F0405F25D1BB
:1022F0009A6842F080429A6000201BE000226264EB
:10230000CBE72368154A934201D0002012E09A6877
:1023100012F0405F14D19A6842F080429A60002027
:1023200008E0236C43F010032364636C43F0010363
:102330006364002002B010BD0220FBE70020F9E733
:102340000020F7E70000002083DE1B4387230008FE
:10235000652300087123000800230140002001408C
:102360007047704708B5806BFFF7FBFF08BD7047EB
:1023700008B5806B40230364436C43F0040343645B
:10238000FFF7F5FF08BD08B50346806B026C12F03D
:10239000500F25D1036C43F40073036403689A68FB
:1023A00012F0405F19D1027EBAB9DA6A12F4700FE6
:1023B00003D09A6812F4806F0FD15A6822F020027D
:1023C0005A60036C23F480730364036C13F4805F1E
:1023D00003D1036C43F001030364FFF7C1FF08BDA1
:1023E000026C12F0100F04D1826BD26C1846904729
:1023F000F5E7FFF7BCFFF2E730B482B000220192AC
:1024000090F83C20012A00F0C0800346012280F8A9
:102410003C200A68092A40D90468E06892B202EBBD
:1024200042021E3A4FF0070C0CFA02F220EA0202B6
:10243000E2601C68E0680A8802EB42021E3A8D687E
:1024400005FA02F20243E2604A68062A3CD81C6898
:10245000606B02EB8202053A4FF01F0C0CFA02F29D
:1024600020EA020262631C68606B4A6802EB820227
:10247000053AB1F800C00CFA02F202436263186830
:10248000434A904250D01868414A904259D00020A7
:1024900083F83C0002B030BC70470468206992B2F7
:1024A00002EB42024FF0070C0CFA02F220EA0202A1
:1024B00022611C6820690A8802EB42028D6805FAD5
:1024C00002F202432261BFE70C2A16D81D68286B6E
:1024D00002EB8202233A1F2404FA02F220EA0202EB
:1024E0002A631D68286B4A6802EB8202233A0C8833
:1024F00004FA02F202432A63C1E71D68E86A02EBAC
:102500008202413A1F2404FA02F220EA0202EA623D
:102510001D68E86A4A6802EB8202413A0C8804FAB4
:1025200002F20243EA62AAE70A68122AABD1194A08
:10253000506820F400005060506840F48000506003
:10254000A1E70A681448824201D0112A9FD1114A9A
:10255000506820F480005060506840F400005060E3
:1025600009680D4A914292D10C4A12680C49A1FBAC
:102570000212920C02EB820252000192019A002A8E
:1025800085D0019A013A0192F8E7022082E700BF64
:102590000020014000230140120000100000002034
:1025A00083DE1B43002807DB00F01F0240090123E4
:1025B0009340024A42F82030704700BF00E100E03B
:1025C000002808DB0901C9B200F1604000F5614054
:1025D00080F80013704700F00F000901C9B2014BE9
:1025E0001954704714ED00E000B500F00700C0F189
:1025F000070CBCF1040F28BF4FF0040C031D062B81
:102600000FD9C31E4FF0FF3E0EFA0CF021EA000175
:1026100099400EFA03FE22EA0E0241EA02005DF83A
:1026200004FB0023EEE70000074AD36823F4E063CD
:102630001B041B0C000200F4E060034343F0BF6383
:1026400043F40033D360704700ED00E010B504465A
:10265000054BD868C0F30220FFF7C6FF01462046AD
:10266000FFF7AEFF10BD00BF00ED00E008B5FFF7BB
:1026700099FF08BD30B405682C6824F480242C60D0
:10268000046863608368402B05D003689960036821
:10269000DA6030BC704703689A600368D960F8E775
:1026A00010B40368D9B210390A4AA2FB01421209D8
:1026B000094CA25CC2655F2907D96FF30903043393
:1026C0008365806D5DF8044B70476FF30903836584
:1026D000F7E700BFABAAAAAA90E60308836A82695B
:1026E00092B9012B0AD0022B02D00BB10020704707
:1026F000C36A13F0807F28D100207047C36AB3F10A
:10270000C07F24D000207047B2F5005F09D0022BB3
:1027100025D9032B25D1C36A13F0807F23D1002054
:102720007047032B03D8DFE803F01404140A0020D9
:102730007047C36A13F0807F0DD100207047C36AD1
:10274000B3F1C07F09D000207047012070470120FD
:102750007047012070470120704701207047012019
:1027600070470020704701207047000070B5044694
:10277000FFF764FC002C5BD00546022384F835305B
:10278000002384F834302268136823F001031360B7
:1027900023681A6812F0010F0AD0FFF74FFC431BA1
:1027A000052BF5D920236365032084F8350070BD1F
:1027B0001A68204911406268A0680243E068024339
:1027C0002069024360690243A0690243E069024351
:1027D000206A02430A43616A04291ED01A602668EF
:1027E000756925F00705636A1D43042B07D1A36AA9
:1027F0001D43E36A1BB12046FFF770FF90B9756176
:102800002046FFF74DFFE26D3F2393408360002099
:102810006065012384F83530C9E7E16A206B014324
:102820000A43DBE740236365012084F83500BEE7F7
:102830000120BCE73F8010F038B50446856D90F864
:10284000340001282BD0012084F8340094F835009E
:10285000C0B2012804D0002384F83430022038BDEF
:10286000022084F83500002060652046FFF702FF53
:10287000E26D3F239340AB602268136843F0160378
:102880001360236C23B12268136843F008031360BC
:102890002268136843F0010313600020DFE7022081
:1028A000DDE770B50446866DFFF7C8FB94F8353058
:1028B000DBB2022B06D080236365002384F834301A
:1028C000012070BD05462268136823F016031360CB
:1028D0002268536923F080035361236CE3B12268BB
:1028E000136823F0080313602268136823F00103C0
:1028F000136023681B6813F0010F11D0FFF79EFBD4
:10290000431B052BF5D920236365032084F835008C
:10291000002384F83430D4E7A36C002BDFD1E3E745
:10292000E26D3F239340B360012384F835300020EB
:1029300084F83400C5E790F83530DBB2022B03D0C1
:102940008023436501207047052380F835300268F5
:10295000136823F00103136000207047F0B583B0C3
:10296000044600230193724B1D68724BA3FB05358F
:10297000AD0A876D3E68C26D08239340334210D084
:1029800003681A6812F0040F0BD01A6822F00402D0
:102990001A60C26D08239340BB60436D43F001038E
:1029A0004365E26D01239340334209D022685269A6
:1029B00012F0800F04D0BB60636D43F002036365C7
:1029C000E26D04239340334209D02268126812F06A
:1029D000020F04D0BB60636D43F004036365E26DD6
:1029E00010239340334224D02268126812F0080F5B
:1029F0001FD0BB6023681A6812F4802F0DD01B68AB
:102A000013F4002F04D1236C9BB12046984710E0AB
:102A1000A36C73B1204698470BE01A6812F4807FCC
:102A200003D11A6822F008021A60236C0BB1204609
:102A30009847E26D20239340334255D022681268B4
:102A400012F0100F50D0BB6094F83530DBB2052B7C
:102A50000ED023681A6812F4802F33D01B6813F449
:102A6000002F2AD1636C002B3ED0204698473BE0D4
:102A70002268136823F0160313602268536923F059
:102A800080035361236CA3B12268136823F0080309
:102A90001360E26D3F239340BB60012384F835301F
:102AA000002384F83430236D002B3FD02046984714
:102AB0003CE0A36C002BE7D1EBE7E36BA3B120462E
:102AC000984711E01A6812F4807F09D11A6822F041
:102AD00010021A60012384F83530002384F8343062
:102AE000E36B0BB120469847636DFBB1636D13F048
:102AF000010F17D0052384F835302268136823F0BE
:102B000001031360019B01330193AB4204D8236896
:102B10001B6813F0010FF5D1012384F83530002331
:102B200084F83430E36C0BB12046984703B0F0BD15
:102B300000000020B5814E1B00230F2B00F2D78030
:102B400070B582B065E085684FEA430E032404FA4D
:102B50000EF425EA0405CC6804FA0EF42C438460D4
:102B6000446824EA02044A68C2F300129A402243ED
:102B700042605CE0DC08083450F8242003F00705CC
:102B8000AD004FF00F0E0EFA05FE22EA0E0E0A6996
:102B9000AA4042EA0E0240F824205CE0042200E051
:102BA000002202FA0EF22A430234514D45F8242045
:102BB000504A94686FEA0C0224EA0C054E6816F439
:102BC000801F01D04CEA04054A4CA560E46802EA83
:102BD00004054E6816F4001F01D04CEA0405454C6C
:102BE000E560646802EA04054E6816F4003F01D00F
:102BF0004CEA04053F4C6560246822404D6815F49A
:102C0000803F01D04CEA04023A4C226001330F2B82
:102C10006BD801229A400C6804EA020C32EA0404E0
:102C2000F4D14C6804F00304013C012C8BD94A68B0
:102C300002F00302032A09D0C4685D000322AA40FF
:102C400024EA02048A68AA402243C2604A6802F069
:102C50000302022A8ED004684FEA430E032202FACE
:102C60000EF224EA02044A6802F0030202FA0EF2AB
:102C7000224302604A6812F4403FC7D0002201920A
:102C80001D4A546C44F480445464526C02F48042F3
:102C90000192019A9C08A51C154A52F8255003F090
:102CA000030E4FEA8E0E0F2202FA0EF225EA0205FB
:102CB000124A90423FF474AF02F5806290420ED007
:102CC00002F5806290420CD002F5806290420AD0F8
:102CD00002F5806290423FF461AF072261E7012272
:102CE0005FE702225DE703225BE702B070BD704739
:102CF00000380140003C0140003802400000024022
:102D00000369194201D001207047002070470AB1C1
:102D100081617047090481617047000008B5054B67
:102D20005B69034200D108BD024B5861FEF7D4FD38
:102D3000F9E700BF003C014003685A6912F4806F54
:102D400001D1002070476FF480625A610023036351
:102D5000202280F83D2080F83E30026C42F00402D0
:102D6000026480F83C30012070472DE9F0410646AE
:102D70000C46174698463BE0FFF760F9069BC01AE1
:102D8000404502D8B8F1000F32D1012D18D0336878
:102D90009B6924EA03039BB2B3FA83F35B099F4266
:102DA00026D100233363202286F83D2086F83E306A
:102DB000326C42F02002326486F83C30012027E079
:102DC00033685B6924EA03039BB2B3FA83F35B09BC
:102DD000E5E733685B6924EA030C1FFA8CFCBCFA54
:102DE0008CFC4FEA5C1C674511D1B8F1FF3FC3D1A1
:102DF000C4F30745012DECD033689B6924EA030C2A
:102E00001FFA8CFCBCFA8CFC4FEA5C1CEBE7002040
:102E1000BDE8F0812DE9F84305460E4690469946F7
:102E200053E01A6842F400721A602B686FF48062F3
:102E30005A6100232B63202285F83D2085F83E301F
:102E40002A6C42F004022A6485F83C3001204AE0F2
:102E5000FFF7F4F8A0EB0900404502D8B8F1000FE5
:102E600033D1012F17D02B689B6926EA03039BB24D
:102E7000003B18BF012343B300232B63202285F8B6
:102E80003D2085F83E302A6C42F020022A6485F805
:102E90003C30012027E02B685B6926EA03039BB2E4
:102EA000003B18BF0123E6E72B689C6926EA04046F
:102EB000A4B2003C18BF0124A4B12B685A6912F4D3
:102EC000806FAED1B8F1FF3FC2D1C6F30747012FE3
:102ED000EAD12B685C6926EA0404A4B2003C18BF5E
:102EE0000124E9E70020BDE8F88370B504460D46EB
:102EF000164623685B6913F0800F21D12046FFF747
:102F00001BFFF8B9B5F1FF3FF3D0FFF797F8801B2F
:102F1000A84201D8002DECD123685B6913F0800F23
:102F2000E7D100232363202284F83D2084F83E303B
:102F3000226C42F02002226484F83C30012000E040
:102F4000002070BD0120FCE72DE9F04385B0044668
:102F50000D4691461F46DDF830800D9E03681968C6
:102F600041F4807119600096434600224FF0011130
:102F7000FFF7FBFE60B9236805F0FE051D613346CF
:102F8000424626492046FFF745FF68B1012008E088
:102F900023681B6813F4807F02D04FF4007323640E
:102FA000032005B0BDE8F0830023039323685A692A
:102FB00003929B690393039B324641462046FFF7E9
:102FC00094FF30B9012F0FD123685FFA89F61E6193
:102FD000E7E7236C042B01D00120E2E722681368A5
:102FE00043F400731360F7E723684FEA19221A616C
:102FF000324641462046FFF778FF20B923685FFA42
:1030000089F61E61CDE7236C042B01D00120C8E7AF
:103010002268136843F400731360F7E702000100AD
:103020002DE9F04784B004460D46164699460C9F9C
:10303000DDF834800268136843F48063136003682A
:10304000196841F480711960CDF800803B46002278
:103050004FF00111FFF789FE70B95FFA85FA236816
:1030600005F0FE051D6143463A4641492046FFF7FB
:10307000D1FE68B1012008E023681B6813F4807F4B
:1030800002D04FF400732364032004B0BDE8F0873E
:103090000023039323685A6903929B690393039B5C
:1030A000424639462046FFF720FF80B9B9F1010FAB
:1030B00018D12368F6B21E61424639462046FFF712
:1030C00014FF68B3236C042B24D00120DDE7236CAC
:1030D000042B01D00120D8E72268136843F4007361
:1030E0001360F7E72368320A1A61424639462046E0
:1030F000FFF7FBFE18B92368F6B21E61DCE7236C0C
:10310000042B01D00120C0E72268136843F4007348
:103110001360F7E72268136843F400731360D4E781
:103120002268136843F480731360CDF800803B4637
:1031300000224FF001112046FFF717FE68B9226800
:103140004AF00103136143463A4609492046FFF716
:1031500061FE002899D0012097E723681B6813F4CB
:10316000807F02D04FF40073236403208DE700BFFB
:103170000200010070B504460D46164623685B69DF
:1031800013F0040F21D12046FFF7D6FDF8B9B5F1B1
:10319000FF3FF3D0FEF752FF801BA84201D8002D5D
:1031A000ECD123685B6913F0040FE7D1002323639C
:1031B000202284F83D2084F83E30226C42F0200228
:1031C000226484F83C30012000E0002070BD012022
:1031D000FCE770B504460D46164614E06FF0100289
:1031E0005A6100232363202284F83D2084F83E3076
:1031F000226C226484F83C30012025E023685B695E
:1032000013F0400F10D02368586910F0400F1AD106
:10321000586910F0100FE1D1FEF710FF801BA84293
:10322000ECD8002DEFD1E9E700232363202284F8B6
:103230003D2084F83E30226C42F02002226484F863
:103240003C30012000E0002070BD0000002800F0AC
:10325000CC8070B5044690F83D30002B77D0242305
:1032600084F83D302268136823F00103136022685C
:10327000136843F4004313602268136823F4004387
:10328000136000F0AFFE62685A4B9A4264D85A4B02
:1032900098428CBF00230123002B40F0A88057499F
:1032A000A1FB00318B0C25686A6822F03F0242EADC
:1032B00091426A6021680A6A22F03F0266684D4DB9
:1032C000AE424FD8013313430B622168CA6922F41E
:1032D0004F4222F0FF026568464B9D424CD8431E88
:1032E0006D00B3FBF5F3013340F6FC70034278D078
:1032F000C3F30B031A43CA6121680B6823F0C003B0
:10330000E269206A024313430B6021688B6823F44F
:10331000034323F0FF032269E068024313438B60F9
:103320002168CB6823F0FF036269A069024313435D
:10333000CB602268136843F001031360002020640F
:10334000202384F83D30206384F83E0070BD80F86F
:103350003C30FEF7E5F982E7294B98428CBF002309
:10336000012399E74FF4967505FB03F3254DA5FB63
:1033700003539B090133A6E7A668BEB9431E05EBBC
:10338000450CB3FBFCF30133C3F30B03B3FA83F334
:103390005B0943BBC6B9431E05EB4505B3FBF5F31B
:1033A0000133C3F30B0343F40043A3E7431E05EBD0
:1033B000850C0CEB8C0CB3FBFCF30133C3F30B0358
:1033C000B3FA83F35B09E4E7431E05EB850505EBE0
:1033D0008505B3FBF5F30133C3F30B0343F440431B
:1033E00088E7042386E7012384E701207047012052
:1033F000ACE700BFA08601007F841E0083DE1B4374
:10340000FF083D00D34D62102DE9F04383B0044620
:103410000F46904699460C9EFEF710FE054694F81E
:103420003D00C0B2202803D0022003B0BDE8F083E5
:103430000095192301224B492046FFF796FC0028EE
:1034400040F0898094F83C30012B00F08680012305
:1034500084F83C3023681A6812F0010F03D11A680F
:1034600042F001021A602268136823F400631360BB
:10347000212384F83D30402384F83E300023236428
:103480000A9B6362BDF82C306385638D2385364BC0
:10349000E362019500964B46424639462046FFF7C7
:1034A00053FD00285BD1238D002B35D02A463146B1
:1034B0002046FFF71AFD20BB626A236812781A6162
:1034C000626A531C6362218D013989B22185638D43
:1034D0009BB2013B9BB263852368586910F0040FCF
:1034E000E1D00029DFD052781A61636A0133636248
:1034F000238D013B2385638D9BB2013B9BB263858A
:10350000D1E7236C042B01D001208EE722681368D9
:1035100043F400731360F7E72A4631462046FFF76D
:1035200029FE50B1236C042B01D001207DE72268D5
:10353000136843F400731360F7E72268136843F4D9
:1035400000731360202384F83D30002384F83E305C
:1035500084F83C3069E7022067E7022065E7012034
:1035600063E700BF020010000000FFFF2DE9F043F9
:1035700087B004460F4690469946109EFEF75EFDC2
:10358000054694F83D00C0B2202804D002273846F2
:1035900007B0BDE8F0830095192301228849204631
:1035A000FFF7E3FB002840F04D8194F83C30012BFD
:1035B00000F04A81012384F83C3023681A6812F035
:1035C000010F03D11A6842F001021A6022681368E1
:1035D00023F400631360222384F83D30402384F8F1
:1035E0003E30002323640E9B6362BDF83C3063854C
:1035F000638D2385734BE362019500964B464246EB
:1036000039462046FFF70CFD0746002840F01E8192
:10361000238D5BB9029323685A6902929A690292D8
:10362000029A1A6842F400721A6075E0012B0AD0FF
:10363000022B1AD00023059323685A6905929B69CF
:103640000593059B68E02268136823F48063136088
:103650000023039323685A6903929A690392039A99
:103660001A6842F400721A6056E02268136823F464
:10367000806313602268136843F4006313600023BF
:10368000049323685A6904929B690493049B43E062
:103690002A4631462046FFF79CFD002840F0D8809E
:1036A00023681A69636A1A70636A01336362238D3F
:1036B000013B2385638D9BB2013B9BB263852BE06D
:1036C00000953346002240492046FFF74EFB002874
:1036D00040F0C0802268136843F4007313602368CD
:1036E0001A69636A1A70626A531C6362238D013B14
:1036F0002385638D9BB2013B9BB2638523681B6965
:103700005370636A01336362238D013B2385638DAC
:103710009BB2013B9BB26385238D002B00F0898017
:10372000032B53D8012BB3D0022BC9D000953346BD
:10373000002225492046FFF718FB002840F08C8026
:103740002268136823F48063136023681A69636A2C
:103750001A70636A01336362238D013B2385638D95
:103760009BB2013B9BB2638500953346002216490C
:103770002046FFF7FAFA002870D12268136843F454
:103780000073136023681A69636A1A70626A531CB3
:103790006362238D013B2385638D9BB2013B9BB20A
:1037A000638523681B695370636A01336362238DE9
:1037B000013B2385638D9BB2013B9BB26385ABE7E5
:1037C000020010000000FFFF040001002A463146FD
:1037D0002046FFF7FEFC002842D123681A69636A7D
:1037E0001A70636A01336362228D013A92B22285B4
:1037F000638D9BB2013B9BB263852368596911F0CD
:10380000040F89D0032A0FD023681A69636A1A70DB
:10381000636A01336362238D013B2385638D9BB211
:10382000013B9BB2638577E71A6822F480621A60D5
:10383000EAE7202384F83D30002384F83E3084F802
:103840003C30A4E60227A2E60227A0E601279EE676
:1038500001279CE601279AE6012798E6012796E6CC
:10386000012794E630B583B000287AD00446056875
:1038700090F89534C3B1032384F89534B5F1A04F83
:1038800017D0206801F086FF237C8DF80030231DBF
:103890000ECB206801F035FF70B1022384F8953417
:1038A0000125284603B030BD80F89434FEF73CFB78
:1038B000E1E70023A371E4E70021206802F09CF80F
:1038C000024608B9034617E0022384F8953401251F
:1038D000E7E703EBC30104EB8101012048750B7599
:1038E000CB8500200876C861086203EBC30104EBB6
:1038F000810148620133DBB220799842E9D816E0B1
:1039000002EBC20304EB8303002183F8551283F812
:10391000542283F85812C3F85C12C3F8601202EB09
:10392000C20304EB8303C3F864120132D2B29042A3
:10393000E6D8237C8DF80030231D0ECB206801F0E3
:103940007FFF054620B1022384F895340125A8E7BE
:1039500000236374012384F89534206802F03AF858
:103960009FE701259DE700000C4A136823F003033D
:10397000034313600A4A136943F0040313610129E6
:103980000AD0032901D040BF20BF20BF044A1369D9
:1039900023F004031361704730BFF7E70070004065
:1039A00000ED00E0002800F0E08170B582B0044630
:1039B000036813F0010F3BD09F4B9B6803F00C038F
:1039C000042B2CD09C4B9B6803F00C03082B21D0BC
:1039D0006368B3F5803F4FD0B3F5A02F52D0964B1C
:1039E0001A6822F480321A601A6822F480221A605F
:1039F0006368002B50D0FEF721FB05468E4B1B68F9
:103A000013F4003F14D1FEF719FB401B6428F5D9CD
:103A10000320B1E1884B5B6813F4800FD8D0864B4C
:103A20001B6813F4003F03D06368002B00F09F81F4
:103A3000236813F0020F54D07F4B9B6813F00C0FD8
:103A40003ED07D4B9B6803F00C03082B33D0E3681A
:103A5000002B68D0794B01221A60FEF7EFFA054679
:103A6000754B1B6813F0020F54D1FEF7E7FA401BA9
:103A70000228F5D903207FE16F4A136843F48033AD
:103A80001360B5E76C4B1A6842F480221A601A681A
:103A900042F480321A60ABE7FEF7D0FA0546664B77
:103AA0001B6813F4003FC3D0FEF7C8FA401B64281C
:103AB000F5D9032060E1604B5B6813F4800FC6D139
:103AC0005D4B1B6813F0020F03D0E368012B40F03D
:103AD0005081594A136823F0F803216943EAC1036E
:103AE0001360236813F0080F42D063696BB3534B24
:103AF0000122C3F8802EFEF7A1FA05464E4B5B6FFC
:103B000013F0020F34D1FEF799FA401B0228F5D9C1
:103B1000032031E1484A136823F0F803216943EA9E
:103B2000C1031360DDE7454B00221A60FEF786FAF9
:103B30000546414B1B6813F0020FD2D0FEF77EFA08
:103B4000401B0228F5D9032016E13C4B0022C3F8A4
:103B5000802EFEF773FA0546374B5B6F13F0020FAA
:103B600006D0FEF76BFA401B0228F5D9032003E1CB
:103B7000236813F0040F77D02F4B1B6C13F0805F7A
:103B800033D1002301932C4B1A6C42F080521A64FB
:103B90001B6C03F080530193019B0125284B1B688C
:103BA00013F4807F23D0A368012B34D0052B38D0A9
:103BB000214B1A6F22F001021A671A6F22F00402D9
:103BC0001A67A368002B3DD0FEF738FA06461A4B59
:103BD0001B6F13F0020F46D1FEF730FA801B41F243
:103BE00088339842F3D90320C6E00025D6E7144A6B
:103BF000136843F480731360FEF720FA0646104BF7
:103C00001B6813F4807FCED1FEF718FA801B0228C0
:103C1000F5D90320B0E0084A136F43F0010313679E
:103C2000CFE7054B1A6F42F004021A671A6F42F091
:103C300001021A67C5E700BF003802400000474292
:103C400000700040FEF7FAF90646524B1B6F13F066
:103C5000020F08D0FEF7F2F9801B41F28833984238
:103C6000F3D9032088E0EDB9A369002B00F083802D
:103C7000484A926802F00C02082A51D0022B17D051
:103C8000454B00221A66FEF7D9F90446414B1B68E2
:103C900013F0007F42D0FEF7D1F9001B0228F5D9BE
:103CA000032069E03B4A136C23F080531364DBE785
:103CB000394B00221A66FEF7C1F90546354B1B68E1
:103CC00013F0007F06D0FEF7B9F9401B0228F5D9A2
:103CD000032051E0E369226A1343626A43EA8213D4
:103CE000A26A5208013A43EA0243E26A43EA0263E3
:103CF000284A5360284B01221A66FEF79FF90446B2
:103D0000244B1B6813F0007F06D1FEF797F9001BC8
:103D10000228F5D903202FE000202DE000202BE021
:103D2000012B2BD01B4B5B6803F48001E2699142AD
:103D300026D103F03F02216A8A4223D1616A47F605
:103D4000C0721A40B2EB811F1ED103F44031A26A47
:103D50005208013AB1EB024F18D103F07063E26AE6
:103D6000B3EB026F14D1002006E001207047012060
:103D700002E0012000E0002002B070BD0120FBE75E
:103D80000120F9E70120F7E70120F5E70120F3E73B
:103D90000120F1E70038024000004742014B0122B8
:103DA000DA6470470000474208B5314B9B6803F066
:103DB0000C03082B01D02F4808BD2D4B5A6802F088
:103DC0003F025B6813F4800F2CD0294B5868C0F376
:103DD00088104FEA401CBCEB000C6EEB0E0E4FEA55
:103DE0008E1343EA9C634FEA8C11B1EB0C0163EB39
:103DF0000E03DB0043EA5173C90011EB000C43F1E1
:103E00000003990200234FEA8C2041EA9C51FCF701
:103E10003DFE174B5B68C3F3014301335B00B0FB0E
:103E2000F3F0C9E7124B5868C0F388104FEA401C02
:103E3000BCEB000C6EEB0E0E4FEA8E1343EA9C6354
:103E40004FEA8C11B1EB0C0163EB0E03DB0043EA8C
:103E50005173C90011EB000C43F1000399020023D8
:103E60004FEA8C2041EA9C51FCF710FED1E700BFDD
:103E7000003802400024F400002800F09B8070B558
:103E80000D4604464F4B1B6803F007038B4208D2D4
:103E9000CBB24C4A1370136803F007038B4240F017
:103EA0008B80236813F0020F17D013F0040F04D097
:103EB000454A936843F4E0539360236813F0080F76
:103EC00004D0414A936843F4604393603E4A936848
:103ED00023F0F003A1680B439360236813F0010FF4
:103EE00032D06368012B21D09A1E012A25D9364A87
:103EF000126812F0020F61D033498A6822F003027F
:103F000013438B60FEF79AF806462F4B9B6803F02D
:103F10000C036268B3EB820F16D0FEF78FF8801B9C
:103F200041F288339842F0D9032042E0264A1268D1
:103F300012F4003FE0D101203BE0234A126812F066
:103F4000007FD9D1012034E01E4B1B6803F007032A
:103F5000AB4207D9EAB21B4B1A701B6803F0070388
:103F6000AB422DD1236813F0040F06D0164A936894
:103F700023F4E053E1680B439360236813F0080FC8
:103F800007D0114A936823F46043216943EAC103CF
:103F90009360FFF709FF0C4B9B68C3F303130B4AB5
:103FA000D35CD8400A4B18600A4B1868FDF78AFDAD
:103FB000002070BD012070470120FAE70120F8E7DA
:103FC0000120F6E7003C02400038024080E603088A
:103FD0000000002008000020014B1868704700BF57
:103FE0000000002008B5FFF7F7FF044B9B68C3F300
:103FF0008223034AD35CD84008BD00BF003802408A
:1040000078E6030808B5FFF7E7FF044B9B68C3F3A6
:104010004233034AD35CD84008BD00BF0038024099
:1040200078E603080F2303600B4B9A6802F0030243
:1040300042609A6802F0F00282609A6802F4E052EC
:10404000C2609B68DB0803F4E0530361034B1B6809
:1040500003F007030B60704700380240003C024049
:104060007047000008B5064BDB6813F0800F00D1E5
:1040700008BDFFF7F5FF024B80229A73F8E700BFF7
:10408000003802402DE9F04782B0054688461746C1
:104090001E46FDF7D3FF0A9B1B1A03EB0609FDF72B
:1040A000CDFF8246284B1B68C3F3CB3309FB03F3D8
:1040B00001932B689C6838EA04040CBF0123002399
:1040C000BB423DD0B6F1FF3FF3D0FDF7B7FFA0EB09
:1040D0000A00484507D2019A02B14A46019B013BBA
:1040E00001939146E5E72A68536823F0E0035360A3
:1040F0006B68B3F5827F0BD0AB6AB3F5005F14D069
:10410000012385F85130002385F85030032018E052
:10411000AB68B3F5004F02D0B3F5806FECD12A68DD
:10412000136823F040031360E6E72A68136823F45A
:10413000005313602A68136843F400531360DFE7E9
:10414000002002B0BDE8F0870000002070B584B008
:1041500004460D46164600920B4601220221FFF747
:1041600091FFD0B9174B1B68174AA2FB03235B0DC5
:104170004FF47A7202FB03F303936368B3F5827F13
:1041800011D0039B3BB1039B013B039323689B68C6
:1041900013F0800FF5D104B070BD636D43F02003C0
:1041A00063650320F7E700962B4600228021204616
:1041B000FFF768FF0028EED0636D43F020036365CE
:1041C0000320E8E700000020819F5E1600285AD0F7
:1041D00010B50446436A33B94368B3F5827F05D00E
:1041E0000023C36102E00023036143610023A36253
:1041F00094F85130002B40D0022384F851302268CB
:10420000136823F040031360636803F48273A268A9
:1042100002F404421343E26802F400621343226989
:1042200002F002021343626902F001021343A26921
:1042300002F400721343E26902F038021343226A67
:1042400002F080021343A26A02F400522168134371
:104250000B60638B03F00403626A02F010022168B2
:1042600013434B602268D36923F40063D3610020B9
:104270006065012384F8513010BD84F85030204629
:10428000FDF7A8FBB8E7012070472DE9F04383B0A4
:104290001D4690F85030012B00F0D180044688462E
:1042A0009146012380F85030FDF7C8FE074694F888
:1042B0005160F6B2012E40F0BA80B8F1000F00F064
:1042C000B780B9F1000F00F0B380032384F85130B8
:1042D00000236365C4F83080A4F83490A4F83690C5
:1042E000A363A387E38763642364A368B3F5004FE4
:1042F0001ED023681A6812F0400F03D11A6842F0EA
:1043000040021A60E368B3F5006F1CD0636813B114
:10431000B9F1010F55D1226B236812781A73236B00
:1043200001332363E38E9BB2013B9BB2E38648E0FB
:104330002268136823F0400313602268136843F473
:1043400080431360D5E7636813B1B9F1010F15D14C
:10435000226B23681288DA60236B02332363E38EB7
:104360009BB2013B9BB2E38608E0FDF767FEC01BF2
:10437000A84202D3B5F1FF3F15D1A5B1E38E9BB2A0
:10438000002B3CD023689A6812F0020FEDD0226B0C
:104390001288DA60236B02332363E38E9BB2013B06
:1043A0009BB2E386EAE7012384F8513003263FE01D
:1043B000FDF744FEC01BA84202D3B5F1FF3F19D15F
:1043C000C5B1E38E9BB2D3B123689A6812F0020F95
:1043D000EED0226B12781A73236B01332363B4F887
:1043E00036C01FFA8CFC0CF1FF3C1FFA8CFCA4F8C1
:1043F00036C0E6E7012384F85130032618E03A4638
:1044000029462046FFF7A2FE08B120236365A36872
:1044100033B901932368DA6801929B680193019B89
:10442000636D2BB9012384F85130002600E0022689
:10443000002384F85030304603B0BDE8F0830226F4
:10444000F9E7000038B590F85030012B5ED00446F3
:10445000012380F8503090F85150EDB29D424FD179
:1044600000294ED0002A4CD0032380F8513000237D
:10447000436501638286C2868363436403648387E2
:10448000C3878368B3F5004F2AD0A36C204A1A640F
:10449000A36C204ADA63A36C1F4ADA64A36C00227F
:1044A0001A652268E38E9BB20C32216BA06CFEF77A
:1044B000C3F90146F8B923681A6812F0400F03D116
:1044C0001A6842F040021A602268536843F02003E1
:1044D00053602268536843F0020353600D4610E0B6
:1044E0000268136823F0400313600268136843F402
:1044F00080431360C9E7636D43F01003636500E018
:104500000225002384F85030284638BD0225FBE7F9
:104510006D4500089B4500087945000890F850302B
:10452000012B0CD0012380F850300268536823F02F
:1045300003035360002380F8503018467047022070
:10454000704790F85030012B0CD0012380F8503088
:104550000268536843F003035360002380F850302F
:1045600018467047022070477047704708B5806B47
:10457000FFF7FBFF08BD704708B5806B0268536802
:1045800023F003035360436D43F01003436501239D
:1045900080F85130FFF7EFFF08BD30B583B0054616
:1045A000846BFDF74BFD2B681B6813F4807F23D1D0
:1045B000024621684B6823F020034B6021684B685A
:1045C00023F002034B6064212046FFF7BFFD18B1C2
:1045D000636D43F020036365A36833B901932368D7
:1045E000DA6801929B680193019B0023E386012313
:1045F00084F85130636D23B92046FFF7B5FF03B04F
:1046000030BD2046FFF7B7FFF9E7000030B4026A7B
:10461000036A23F0010303624568836923F073038F
:104620000C681C4322F002028B6813430B4A904231
:1046300006D0456084614A684263036230BC7047BB
:1046400023F00803CA681A4322F0040325F44075D6
:104650004A692A438D691543EBE700BF000001401A
:1046600030B4036A026A22F4807202624468C2694A
:1046700022F073020D68154323F400738A6843EA3D
:1046800002230D4A904206D04460C5614A68C26365
:10469000036230BC704723F40063CA6843EA022314
:1046A00023F4806324F440544A6944EA02148A697A
:1046B00044EA0214E8E700BF0000014030B4036A96
:1046C000026A22F4805202624468C26922F4E6421D
:1046D0000D6842EA052223F400538D6843EA05334E
:1046E000074DA84206D04460C2614A680264036272
:1046F00030BC704724F480444D6944EA8514F2E7E5
:104700000000014010B4036A046A24F0010404624A
:10471000846924F0F00C4CEA021223F00A030B43E4
:10472000826103625DF8044B704710B4036A046A47
:1047300024F010040462846924F4704C4CEA0232C0
:1047400023F0A00343EA0113826103625DF8044B86
:104750007047836823F070030B4343F007038360C3
:104760007047000090F83D30DBB2012B2FD10223BF
:1047700080F83D300268D36843F00103D3600368DA
:10478000154A934218D0B3F1804F15D0A2F57C4260
:10479000934211D002F5806293420DD002F58062FF
:1047A000934209D002F59A32934205D01A6842F03A
:1047B00001021A60002070479A6802F00702062A78
:1047C00007D01A6842F001021A60002070470120E9
:1047D00070470020704700BF0000014070477047DD
:1047E00070477047704770B504460368DE681D69FE
:1047F00015F0020F10D016F0020F0DD06FF002026C
:104800001A610123037703689B6913F0030F5ED0DD
:10481000FFF7E6FF0023237715F0040F12D016F000
:10482000040F0FD023686FF004021A61022323776C
:1048300023689B6913F4407F4FD02046FFF7D0FFD9
:104840000023237715F0080F12D016F0080F0FD0B1
:1048500023686FF008021A61042323772368DB6959
:1048600013F0030F40D02046FFF7BAFF0023237751
:1048700015F0100F12D016F0100F0FD023686FF044
:1048800010021A61082323772368DB6913F4407F41
:1048900031D02046FFF7A4FF0023237715F0010F46
:1048A00002D016F0010F2DD115F0800F02D016F0B6
:1048B000800F2FD115F0400F02D016F0400F31D1EC
:1048C00015F0200F02D016F0200F33D170BDFFF786
:1048D00086FF2046FFF785FF9CE72046FFF77FFF16
:1048E0002046FFF77EFFABE72046FFF778FF204624
:1048F000FFF777FFBAE72046FFF771FF2046FFF783
:1049000070FFC9E723686FF001021A612046FCF7C7
:1049100081FFC9E723686FF080021A61204600F02A
:104920000FFBC7E723686FF040021A612046FFF7CC
:1049300059FFC5E723686FF020021A61204600F096
:10494000FEFAC3E70368294A90420ED0B0F1804FC7
:104950000BD0A2F57C42904207D002F580629042D3
:1049600003D002F58062904203D123F070034A68BD
:1049700013431E4A90421AD0B0F1804F17D0A2F5CF
:104980007C42904213D002F5806290420FD002F533
:10499000806290420BD002F59A32904207D002F525
:1049A0008062904203D002F58062904203D123F4EA
:1049B0004073CA68134323F080034A6913430360BA
:1049C0008B68C3620B688362084B98420AD001234C
:1049D0004361036913F0010F03D0036923F001035E
:1049E000036170470B690363F1E700BF00000140FA
:1049F00040B310B5044690F83D30F3B1022384F87B
:104A00003D30214651F8040BFFF79CFF012384F849
:104A1000463084F83E3084F83F3084F8403084F8E3
:104A2000413084F8423084F8433084F8443084F8CC
:104A3000453084F83D30002010BD80F83C30FDF753
:104A400035F9DBE70120704740B310B5044690F814
:104A50003D30F3B1022384F83D30214651F8040B78
:104A6000FFF770FF012384F8463084F83E3084F865
:104A70003F3084F8403084F8413084F8423084F884
:104A8000433084F8443084F8453084F83D300020C9
:104A900010BD80F83C30FFF7A1FEDBE70120704736
:104AA00030B4036A026A22F010020262446882692A
:104AB00022F4E6420D6842EA052223F020038D68C5
:104AC00043EA05130C4DA84206D0446082614A684F
:104AD0008263036230BC704723F08003CD6843EAF1
:104AE000051323F0400324F440644D6944EA85042F
:104AF0008D6944EA8504E8E70000014038B590F884
:104B00003C30012B66D004460D46012380F83C3032
:104B10000C2A5AD8DFE802F0075959591B5959593C
:104B20003059595944000068FFF770FD22689369B5
:104B300043F0080393612268936923F004039361AF
:104B40002268936929690B43936100203EE0006865
:104B5000FFF7A6FF2268936943F40063936122681C
:104B6000936923F48063936122689369296943EA16
:104B700001239361002029E00068FFF771FD22689E
:104B8000D36943F00803D3612268D36923F0040397
:104B9000D3612268D36929690B43D361002015E0F2
:104BA0000068FFF78BFD2268D36943F40063D3618B
:104BB0002268D36923F48063D3612268D3692969A9
:104BC00043EA0123D361002000E00120002384F8A0
:104BD0003C3038BD0220FCE710B4846824F47F4CDC
:104BE00042EA03220A4342EA0C0282605DF8044B67
:104BF000704790F83C30012B78D010B50446012363
:104C000080F83C30022380F83D300268936823F43A
:104C10007F4323F0770393600B68602B4CD023D83D
:104C2000402B54D011D8202B03D00AD80BB1102B15
:104C300005D119462068FFF78CFD002028E00120EF
:104C400026E0302BF5D0012022E0502B0AD1CA6893
:104C500049680068FFF756FD50212068FFF779FD8D
:104C6000002015E0012013E0B3F5805F3AD0B3F5E2
:104C7000005F14D0702B37D1CB684A688968006810
:104C8000FFF7AAFF2268936843F077039360002040
:104C9000012384F83D30002384F83C3010BDCB68FC
:104CA0004A6889680068FFF797FF2268936843F4B1
:104CB000804393600020EBE7CA6849680068FFF70B
:104CC00034FD60212068FFF744FD0020E0E7CA685A
:104CD00049680068FFF716FD40212068FFF739FD9D
:104CE0000020D5E70020D3E70120D1E7022070475C
:104CF00001F00F014FF0040C0CFA01FC036A23EAE7
:104D00000C030362036A8A40134303627047000086
:104D100010B504460846002933D194F84230DBB27E
:104D2000013B18BF0123002B5FD1002842D1022391
:104D300084F84230042201462068FFF7D9FF226838
:104D4000536C43F40043536423682A4A934241D08E
:104D5000B3F1804F3ED0A2F57C4293423AD002F5A7
:104D60008062934236D002F58062934232D002F5DF
:104D70009A3293422ED01A6842F001021A60002043
:104D800032E0042908D008290DD094F84530DBB270
:104D9000013B18BF0123C6E794F84330DBB2013B67
:104DA00018BF0123BFE794F84430DBB2013B18BFC2
:104DB0000123B8E7042805D0082807D0022384F887
:104DC0004530B7E7022384F84330B3E7022384F881
:104DD0004430AFE79A6802F00702062A07D01A6843
:104DE00042F001021A60002010BD0120FCE7002003
:104DF000FAE700BF0000014038B504460D46002226
:104E00000068FFF775FF2368196A41F21112114219
:104E100008D1196A40F24442114203D15A6C22F47B
:104E200000425A642368196A41F21112114208D1F2
:104E3000196A40F24442114203D11A6822F0010279
:104E40001A6025B9012384F84230002038BD042DB2
:104E500005D0082D07D0012384F84530F5E701235C
:104E600084F84330F1E7012384F84430EDE7000093
:104E700090F83C20012A35D010B40346012280F876
:104E80003C20022280F83D2002685068946820F09F
:104E9000700C086840EA0C0050601A6812488242A0
:104EA00012D0B2F1804F0FD0A0F57C4082420BD0DF
:104EB00000F58060824207D000F58060824203D016
:104EC00000F59A30824204D124F0800449682143DD
:104ED0009160012283F83D20002083F83C005DF8BA
:104EE000044B70470220704700000140024690F8D2
:104EF0003C30012B21D0012380F83C30CB6823F4D7
:104F000040738868034323F480634868034323F4B1
:104F100000630868034323F480530869034323F4C0
:104F200000534869034323F48043C9690B43116864
:104F30004B64002082F83C007047022070477047A5
:104F40007047026802F10C0353E8003F23F49073AA
:104F50000C3242E800310029F3D1026802F1140357
:104F600053E8003F23F00103143242E800310029E6
:104F7000F3D1036B012B05D0202380F842300023AE
:104F800003637047026802F10C0353E8003F23F00B
:104F900010030C3242E800310029F3D1ECE790F81D
:104FA0004130DBB2212B01D0022070478368B3F57A
:104FB000805F17D0036A5A1C02621A7803685A602D
:104FC000C38C9BB2013B9BB2C3844BB90268D368CC
:104FD00023F08003D3600268D36843F04003D360BA
:104FE000002070470369002BE4D1036A1B88026824
:104FF000C3F308035360036A02330362E0E700006F
:1050000010B504460268136923F44053C1680B438A
:105010001361836802691A4343691A43C3691A43D7
:105020000168CB6823F4164323F00C031343CB60D1
:105030000268536923F4407381690B435361036829
:10504000314A934206D002F58062934202D0FEF7C5
:10505000C9FF01E0FEF7D6FFE369B3F5004F29D0A1
:105060000021031849411B1841F10001C90041EA20
:105070005371DB00181863684FEA83024FEA937399
:1050800041F10001FBF702FD204AA2FB0031490972
:10509000642303FB11031B013233A2FB03235B09CF
:1050A00003F0F00202EB011203F00F032168134436
:1050B0008B6010BD0023021843EB0301121841F16D
:1050C0000001C90041EA5271D200101841F10001FB
:1050D000626892185B41FBF7D9FC0C4AA2FB0031D5
:1050E0004909642303FB1103DB003233A2FB0323D2
:1050F0005B095A0002F4F87202EB011203F0070395
:10510000216813448B60D4E7001001401F85EB51E8
:105110002DE9F04383B005460E4617469946DDF863
:1051200028802B681C6836EA04040CBF0124002484
:10513000BC4228D1B8F1FF3FF3D0FCF77FFFA0EBD2
:105140000900404523D8B8F1000F22D02B68DA6857
:1051500012F0040FE5D0802EE3D0402EE1D01A6883
:1051600012F0080FDDD0002401941A6801925B68E8
:105170000193019B2846FFF7E4FE08236B6485F842
:105180004040012000E0002003B0BDE8F083032090
:10519000FAE70320F8E760B310B5044690F8413011
:1051A00013B3242384F841302268D36823F40053D6
:1051B000D3602046FFF724FF2268136923F490434D
:1051C00013612268536923F02A0353612268D3686C
:1051D00043F40053D36000206064202384F84130FE
:1051E00084F84230606310BD80F84030FCF744FE24
:1051F000D7E7012070472DE9F04182B01E4690F8B4
:105200004130DBB2202B56D104460D469046002992
:1052100055D00AB901204FE000234364212380F8D0
:105220004130FCF70BFF0746A4F82480A4F8268041
:10523000A368B3F5805F02D04FF0000814E0236943
:105240002BB34FF000080FE0202384F841300320F7
:1052500032E038F8023B2268C3F308035360E28C63
:1052600092B2013A92B2E284E38C9BB293B100967F
:105270003B46002280212046FFF74AFF0028E3D169
:10528000002DE6D015F8012B23685A60E7E7A84601
:105290000025E9E700963B46002240212046FFF723
:1052A00037FF18B9202384F8413005E0202384F823
:1052B0004130032000E0022002B0BDE8F08101206F
:1052C000FAE7704708B50168CA6822F04002CA6070
:1052D000202280F84120FFF7F4FF002008BD70472E
:1052E00008B5806B0023C385C384FFF7F8FF08BDB2
:1052F000704790F84230DBB2222B69D18368B3F556
:10530000805F4FD0826AB3F5805F04D0002B56D106
:105310000369002B53D103685B681370836A013300
:105320008362C38D9BB2013B9BB2C385002B51D1DD
:1053300000B583B00268D36823F02003D36002680D
:10534000D36823F48073D3600268536923F00103A8
:105350005361202380F8423000234363036B012B09
:1053600033D100230363026802F10C0353E8003FCA
:1053700023F010030C3242E800310029F3D1036816
:105380001A6812F0100F06D0002201921A680192DA
:105390005B680193019B818DFFF7AAFF002003B09A
:1053A0005DF804FB0269002AACD1826A03685B687D
:1053B000C3F308031380836A02338362B1E703688F
:1053C0005B6803F07F031370A8E731F02FFEE5E779
:1053D000022070470020704710B582B00446026872
:1053E0001368D068516913F00F0F09D113F0200F23
:1053F0000CD010F0200F09D02046FFF77AFF16E0FE
:1054000011F0010115D110F4907F12D1216B012907
:1054100079D013F0800F03D010F0800F40F014818A
:1054200013F0400F03D010F0400F40F0118102B094
:1054300010BD13F0010F06D010F4807F03D0626C12
:1054400042F00102626413F0040F04D019B1626CDF
:1054500042F00202626413F0020F04D019B1626CD0
:1054600042F00402626413F0080F07D010F0200F1E
:1054700000D119B1626C42F008026264626C002AC9
:10548000D5D013F0200F02D010F0200F29D12368BF
:105490005B6903F04003626C12F0080F00D163B344
:1054A0002046FFF74EFD23685B6913F0400F20D0C4
:1054B000226802F1140353E8003F23F04003143242
:1054C00042E800310029F3D1E36B73B1624A1A65F7
:1054D000E06BFDF730FA0028A9D0E06B036D984728
:1054E000A5E72046FFF705FFD1E72046FFF7F7FEC7
:1054F0009DE72046FFF7F3FE99E72046FFF7EFFE12
:105500000023636493E713F0100F82D010F0100FA4
:105510003FF47FAF00230193136801935368019315
:10552000019B536913F0400F52D0E26B13685B6824
:105530009BB2002B3FF47BAFA18D99427FF677AFF2
:10554000E385D369B3F5807F37D0226802F10C037D
:1055500053E8003F23F480730C3242E80031002905
:10556000F3D1226802F1140353E8003F23F0010352
:10557000143242E800310029F3D1226802F1140309
:1055800053E8003F23F04003143242E80031002981
:10559000F3D1202384F8423000232363226802F1F0
:1055A0000C0353E8003F23F010030C3242E80031B3
:1055B0000029F3D1E06BFDF774F902236363A18D39
:1055C000E38D9BB2C91A89B22046FFF791FE2EE700
:1055D000A18DE38D9BB2C91A89B2E38D9BB2002BDA
:1055E0003FF425AF00293FF422AF226802F10C03FB
:1055F00053E8003F23F490730C3242E80030002857
:10560000F3D1226802F1140353E8003F23F00103B1
:10561000143242E800300028F3D1202384F84230CD
:1056200000232363226802F10C0353E8003F23F0B8
:1056300010030C3242E800300028F3D102236363E8
:105640002046FFF755FEF2E62046FFF7A8FCEEE6FF
:105650002046FFF737FEEAE6E152000881628285C4
:10566000C28500234364222380F84230036923B1BA
:105670000268D36843F48073D3600268536943F0CF
:10568000010353610268D36843F02003D360002014
:10569000704708B590F84230DBB2202B08D149B1F1
:1056A0000AB9012008BD00230363FFF7D7FFF9E71C
:1056B0000220F7E70120F5E782B000230193019B68
:1056C00001330193019BB3F1706F15D80369002B6F
:1056D000F5DA00230193036943F001030361019BA1
:1056E00001330193019BB3F1706F08D8036913F084
:1056F000010FF4D1002000E0032002B07047032026
:10570000FBE784B010B5044603A880E80E009DF8BE
:105710001130012B21D1A36B23F48033A363E36801
:1057200023F4840323F04003E360E36823F440138D
:10573000E3609DF81830012B0AD02046FFF7BCFF2C
:105740009DF80E30012B1CD0BDE8104004B070470E
:10575000E36843F48013E360EFE7E36843F040035A
:10576000E3602046FFF7A8FF9DF8153023B9A36B2F
:1057700043F48033A363E3E7A36B23F48033A36391
:10578000DEE7A36843F00603A360A36843F02003A9
:10579000A360D9E7836823F001038360002070478A
:1057A00082B000230193019B01330193019BB3F16C
:1057B000706F15D80369002BF5DA00230193890176
:1057C00041F020010161019B01330193019BB3F181
:1057D000706F08D8036913F0200FF4D1002000E0A7
:1057E000032002B070470320FBE782B0002301933F
:1057F000019B01330193019BB3F1706F13D80369CF
:10580000002BF5DA0023019310230361019B013380
:105810000193019BB3F1706F08D8036913F0100F67
:10582000F4D1002000E0032002B070470320FBE722
:10583000D0F800381943C0F8001800207047000065
:1058400084B0F8B5044607A880E80E00002306E0FF
:1058500003F1400204EB82020021516001330E2B60
:10586000F6D99DF8266006BBD4F8043843F002034D
:10587000C4F80438A36B43F40013A363A36B23F4AD
:105880000023A363A36B23F48023A3630023C4F842
:10589000003E9DF82130012B15D19DF81F306BB9CA
:1058A00000212046FFF7C4FF11E0A36B23F400138F
:1058B000A363A36B43F40023A363E7E7012120461E
:1058C000FFF7B6FF03E003212046FFF7B1FF1021E9
:1058D0002046FFF765FF054600B101252046FFF78A
:1058E00084FF00B1012504F5006C0023CCF81030D2
:1058F000CCF81430CCF81C300AE0CBB94FF0006083
:10590000C2F8000900220A614FF67F328A60013333
:105910009DF81C10994210D904EB431202F5106156
:10592000D2F800090028E8DB0020C2F80009E9E706
:105930004FF09040C2F80009E4E700230AE0BBB151
:105940004FF09047C2F8007B002202614FF67F3291
:1059500082600133994210D904EB431202F53060A2
:10596000D2F8007B002FEADB0027C2F8007BEBE7D0
:105970004FF00067C2F8007BE6E7DCF8103023F454
:105980008073CCF810300023A3616FF08043636113
:105990009DF81E301BB9A36943F01003A361A269EF
:1059A0000B4B1343A3619DF822301BB1A36943F055
:1059B0000803A361012E04D02846BDE8F84004B0D6
:1059C0007047A36943F0804343F00403A361F3E706
:1059D00000383C80D0F8003E23F00303C0F8003EBE
:1059E000D0F8043843F00203C0F8043800207047B0
:1059F000406900F00100704738B50546C36823F0E0
:105A0000C043C360012913D019BBC36843F080436E
:105A1000C36000240A20FCF717FB0A342846FFF76E
:105A2000E7FF08B1C72CF5D9C82C14D0002038BD29
:105A3000C36843F00053C36000240A20FCF704FB52
:105A40000A342846FFF7D4FF0128EDD0C72CF4D93B
:105A5000EAE70120EBE70120E9E7000000B587B0A5
:105A600002468DF8171020230293012301930DF1B4
:105A7000170100912A210348FDF7C6FC07B05DF825
:105A800004FB00BF346A002010B50A4C00224FF41A
:105A900080712046FDF73BF90A20FCF7D5FA012278
:105AA0004FF480712046FDF732F96420FCF7CCFA00
:105AB00010BD00BF0004024000B587B02023029350
:105AC0000423019305AB0093012303222B210C48EF
:105AD000FDF74CFD9DF814309DF815201B0203F4D2
:105AE0007063134307490B809DF816309DF817200B
:105AF0001B0203F4706313434B8007B05DF804FB93
